{
  "contractName": "Car",
  "abi": [
    {
      "constant": true,
      "inputs": [
        {
          "name": "",
          "type": "uint256"
        }
      ],
      "name": "cars",
      "outputs": [
        {
          "name": "timestamp",
          "type": "uint256"
        },
        {
          "name": "carId",
          "type": "uint256"
        },
        {
          "name": "carName",
          "type": "string"
        },
        {
          "name": "carType",
          "type": "uint256"
        },
        {
          "name": "company",
          "type": "string"
        },
        {
          "name": "fee",
          "type": "uint256"
        },
        {
          "name": "pnum",
          "type": "uint256"
        },
        {
          "name": "vmile",
          "type": "uint256"
        },
        {
          "name": "fuel",
          "type": "string"
        },
        {
          "name": "changeType",
          "type": "string"
        },
        {
          "name": "purchaseTime",
          "type": "string"
        },
        {
          "name": "efficiency",
          "type": "uint256"
        }
      ],
      "payable": false,
      "stateMutability": "view",
      "type": "function"
    },
    {
      "anonymous": false,
      "inputs": [
        {
          "indexed": false,
          "name": "status",
          "type": "bool"
        },
        {
          "indexed": false,
          "name": "timestamp",
          "type": "uint256"
        },
        {
          "indexed": false,
          "name": "carId",
          "type": "uint256"
        }
      ],
      "name": "logCarAddedStatus",
      "type": "event"
    },
    {
      "anonymous": false,
      "inputs": [
        {
          "indexed": false,
          "name": "amount",
          "type": "uint256"
        }
      ],
      "name": "logGetAllOfCars",
      "type": "event"
    },
    {
      "constant": false,
      "inputs": [
        {
          "name": "_carId",
          "type": "uint256"
        },
        {
          "name": "_carName",
          "type": "string"
        }
      ],
      "name": "enroll_carName",
      "outputs": [],
      "payable": false,
      "stateMutability": "nonpayable",
      "type": "function"
    },
    {
      "constant": false,
      "inputs": [
        {
          "name": "_carId",
          "type": "uint256"
        },
        {
          "name": "_carType",
          "type": "uint256"
        }
      ],
      "name": "enroll_carType",
      "outputs": [],
      "payable": false,
      "stateMutability": "nonpayable",
      "type": "function"
    },
    {
      "constant": false,
      "inputs": [
        {
          "name": "_carId",
          "type": "uint256"
        },
        {
          "name": "_company",
          "type": "string"
        }
      ],
      "name": "enroll_company",
      "outputs": [],
      "payable": false,
      "stateMutability": "nonpayable",
      "type": "function"
    },
    {
      "constant": false,
      "inputs": [
        {
          "name": "_carId",
          "type": "uint256"
        },
        {
          "name": "_fee",
          "type": "uint256"
        }
      ],
      "name": "enroll_fee",
      "outputs": [],
      "payable": false,
      "stateMutability": "nonpayable",
      "type": "function"
    },
    {
      "constant": false,
      "inputs": [
        {
          "name": "_carId",
          "type": "uint256"
        },
        {
          "name": "_pnum",
          "type": "uint256"
        }
      ],
      "name": "enroll_pnum",
      "outputs": [],
      "payable": false,
      "stateMutability": "nonpayable",
      "type": "function"
    },
    {
      "constant": false,
      "inputs": [
        {
          "name": "_carId",
          "type": "uint256"
        },
        {
          "name": "_vmile",
          "type": "uint256"
        }
      ],
      "name": "enroll_vmile",
      "outputs": [],
      "payable": false,
      "stateMutability": "nonpayable",
      "type": "function"
    },
    {
      "constant": false,
      "inputs": [
        {
          "name": "_carId",
          "type": "uint256"
        },
        {
          "name": "_fuel",
          "type": "string"
        }
      ],
      "name": "enroll_fuel",
      "outputs": [],
      "payable": false,
      "stateMutability": "nonpayable",
      "type": "function"
    },
    {
      "constant": false,
      "inputs": [
        {
          "name": "_carId",
          "type": "uint256"
        },
        {
          "name": "_changeType",
          "type": "string"
        }
      ],
      "name": "enroll_changeType",
      "outputs": [],
      "payable": false,
      "stateMutability": "nonpayable",
      "type": "function"
    },
    {
      "constant": false,
      "inputs": [
        {
          "name": "_carId",
          "type": "uint256"
        },
        {
          "name": "_purchaseTime",
          "type": "string"
        }
      ],
      "name": "enroll_purchaseTime",
      "outputs": [],
      "payable": false,
      "stateMutability": "nonpayable",
      "type": "function"
    },
    {
      "constant": false,
      "inputs": [
        {
          "name": "_carId",
          "type": "uint256"
        },
        {
          "name": "_efficiency",
          "type": "uint256"
        }
      ],
      "name": "enroll_efficiency",
      "outputs": [],
      "payable": false,
      "stateMutability": "nonpayable",
      "type": "function"
    },
    {
      "constant": false,
      "inputs": [
        {
          "name": "amount",
          "type": "uint256"
        }
      ],
      "name": "getAll",
      "outputs": [],
      "payable": false,
      "stateMutability": "nonpayable",
      "type": "function"
    },
    {
      "constant": false,
      "inputs": [
        {
          "name": "_Id",
          "type": "uint256"
        }
      ],
      "name": "get",
      "outputs": [
        {
          "components": [
            {
              "name": "timestamp",
              "type": "uint256"
            },
            {
              "name": "carId",
              "type": "uint256"
            },
            {
              "name": "carName",
              "type": "string"
            },
            {
              "name": "carType",
              "type": "uint256"
            },
            {
              "name": "company",
              "type": "string"
            },
            {
              "name": "fee",
              "type": "uint256"
            },
            {
              "name": "pnum",
              "type": "uint256"
            },
            {
              "name": "vmile",
              "type": "uint256"
            },
            {
              "name": "fuel",
              "type": "string"
            },
            {
              "name": "changeType",
              "type": "string"
            },
            {
              "name": "purchaseTime",
              "type": "string"
            },
            {
              "name": "efficiency",
              "type": "uint256"
            }
          ],
          "name": "",
          "type": "tuple"
        }
      ],
      "payable": false,
      "stateMutability": "nonpayable",
      "type": "function"
    },
    {
      "constant": true,
      "inputs": [
        {
          "name": "_carId",
          "type": "uint256"
        }
      ],
      "name": "getInfoA",
      "outputs": [
        {
          "name": "",
          "type": "uint256"
        },
        {
          "name": "",
          "type": "string"
        },
        {
          "name": "",
          "type": "uint256"
        },
        {
          "name": "",
          "type": "string"
        },
        {
          "name": "",
          "type": "uint256"
        }
      ],
      "payable": false,
      "stateMutability": "view",
      "type": "function"
    },
    {
      "constant": true,
      "inputs": [
        {
          "name": "_carId",
          "type": "uint256"
        }
      ],
      "name": "getInfoB",
      "outputs": [
        {
          "name": "",
          "type": "uint256"
        },
        {
          "name": "",
          "type": "uint256"
        },
        {
          "name": "",
          "type": "string"
        },
        {
          "name": "",
          "type": "uint256"
        },
        {
          "name": "",
          "type": "string"
        },
        {
          "name": "",
          "type": "string"
        }
      ],
      "payable": false,
      "stateMutability": "view",
      "type": "function"
    }
  ],
  "bytecode": "0x608060405234801561001057600080fd5b50611df0806100206000396000f3006080604052600436106100db576000357c0100000000000000000000000000000000000000000000000000000000900463ffffffff168063088de7ac146100e057806314c735c2146101095780631827caf4146101325780632a6dd9cb146101745780632d65fdc1146101b557806330571c44146101de5780633c077a481461020757806358f22a101461023057806361f383c5146102595780639507d39a14610282578063a0a74638146102bf578063b2153fed146102e8578063cd58576514610311578063dc30382e1461033a578063f7746e3614610363575b600080fd5b3480156100ec57600080fd5b50610107600480360361010291908101906118c6565b6103ab565b005b34801561011557600080fd5b50610130600480360361012b91908101906118c6565b610465565b005b34801561013e57600080fd5b5061015960048036036101549190810190611849565b61051f565b60405161016b96959493929190611b81565b60405180910390f35b34801561018057600080fd5b5061019b60048036036101969190810190611849565b610793565b6040516101ac959493929190611b20565b60405180910390f35b3480156101c157600080fd5b506101dc60048036036101d79190810190611872565b610954565b005b3480156101ea57600080fd5b5061020560048036036102009190810190611872565b610a1e565b005b34801561021357600080fd5b5061022e60048036036102299190810190611849565b610b1c565b005b34801561023c57600080fd5b50610257600480360361025291908101906118c6565b610b56565b005b34801561026557600080fd5b50610280600480360361027b91908101906118c6565b610c10565b005b34801561028e57600080fd5b506102a960048036036102a49190810190611849565b610cca565b6040516102b69190611ae3565b60405180910390f35b3480156102cb57600080fd5b506102e660048036036102e191908101906118c6565b611068565b005b3480156102f457600080fd5b5061030f600480360361030a9190810190611872565b611122565b005b34801561031d57600080fd5b5061033860048036036103339190810190611872565b6111ec565b005b34801561034657600080fd5b50610361600480360361035c9190810190611872565b6112b6565b005b34801561036f57600080fd5b5061038a60048036036103859190810190611849565b611380565b6040516103a29c9b9a99989796959493929190611bf7565b60405180910390f35b60008060008481526020019081526020016000206006015414156104245780600080848152602001908152602001600020600601819055507fdfa6cd20eee5bade63fc06a36fee48a6bbdd31b9ee50d7924a946525192f90bc6001428460405161041793929190611aac565b60405180910390a1610461565b7fdfa6cd20eee5bade63fc06a36fee48a6bbdd31b9ee50d7924a946525192f90bc6000428460405161045893929190611aac565b60405180910390a15b5050565b6000806000848152602001908152602001600020600b015414156104de5780600080848152602001908152602001600020600b01819055507fdfa6cd20eee5bade63fc06a36fee48a6bbdd31b9ee50d7924a946525192f90bc600142846040516104d193929190611aac565b60405180910390a161051b565b7fdfa6cd20eee5bade63fc06a36fee48a6bbdd31b9ee50d7924a946525192f90bc6000428460405161051293929190611aac565b60405180910390a15b5050565b6000806060600060608060008088815260200190815260200160002060060154600080898152602001908152602001600020600701546000808a81526020019081526020016000206008016000808b8152602001908152602001600020600b01546000808c81526020019081526020016000206009016000808d8152602001908152602001600020600a01838054600181600116156101000203166002900480601f01602080910402602001604051908101604052809291908181526020018280546001816001161561010002031660029004801561063f5780601f106106145761010080835404028352916020019161063f565b820191906000526020600020905b81548152906001019060200180831161062257829003601f168201915b50505050509350818054600181600116156101000203166002900480601f0160208091040260200160405190810160405280929190818152602001828054600181600116156101000203166002900480156106db5780601f106106b0576101008083540402835291602001916106db565b820191906000526020600020905b8154815290600101906020018083116106be57829003601f168201915b50505050509150808054600181600116156101000203166002900480601f0160208091040260200160405190810160405280929190818152602001828054600181600116156101000203166002900480156107775780601f1061074c57610100808354040283529160200191610777565b820191906000526020600020905b81548152906001019060200180831161075a57829003601f168201915b5050505050905095509550955095509550955091939550919395565b6000606060006060600080600087815260200190815260200160002060010154600080888152602001908152602001600020600201600080898152602001908152602001600020600301546000808a81526020019081526020016000206004016000808b815260200190815260200160002060050154838054600181600116156101000203166002900480601f01602080910402602001604051908101604052809291908181526020018280546001816001161561010002031660029004801561089e5780601f106108735761010080835404028352916020019161089e565b820191906000526020600020905b81548152906001019060200180831161088157829003601f168201915b50505050509350818054600181600116156101000203166002900480601f01602080910402602001604051908101604052809291908181526020018280546001816001161561010002031660029004801561093a5780601f1061090f5761010080835404028352916020019161093a565b820191906000526020600020905b81548152906001019060200180831161091d57829003601f168201915b505050505091509450945094509450945091939590929450565b6000806000848152602001908152602001600020600b015414156109dd5780600080848152602001908152602001600020600a01908051906020019061099b9291906116d8565b507fdfa6cd20eee5bade63fc06a36fee48a6bbdd31b9ee50d7924a946525192f90bc600142846040516109d093929190611aac565b60405180910390a1610a1a565b7fdfa6cd20eee5bade63fc06a36fee48a6bbdd31b9ee50d7924a946525192f90bc60004284604051610a1193929190611aac565b60405180910390a15b5050565b6000806000848152602001908152602001600020600001541415610adb578160008084815260200190815260200160002060010181905550806000808481526020019081526020016000206002019080519060200190610a7f9291906116d8565b5042600080848152602001908152602001600020600001819055507fdfa6cd20eee5bade63fc06a36fee48a6bbdd31b9ee50d7924a946525192f90bc60014284604051610ace93929190611aac565b60405180910390a1610b18565b7fdfa6cd20eee5bade63fc06a36fee48a6bbdd31b9ee50d7924a946525192f90bc60004284604051610b0f93929190611aac565b60405180910390a15b5050565b7f306e7b5b0eef79122f5c122a7df624225e0c5bd989e4acbff19d93667d6c3fb081604051610b4b9190611b05565b60405180910390a150565b6000806000848152602001908152602001600020600301541415610bcf5780600080848152602001908152602001600020600301819055507fdfa6cd20eee5bade63fc06a36fee48a6bbdd31b9ee50d7924a946525192f90bc60014284604051610bc293929190611aac565b60405180910390a1610c0c565b7fdfa6cd20eee5bade63fc06a36fee48a6bbdd31b9ee50d7924a946525192f90bc60004284604051610c0393929190611aac565b60405180910390a15b5050565b6000806000848152602001908152602001600020600701541415610c895780600080848152602001908152602001600020600701819055507fdfa6cd20eee5bade63fc06a36fee48a6bbdd31b9ee50d7924a946525192f90bc60014284604051610c7c93929190611aac565b60405180910390a1610cc6565b7fdfa6cd20eee5bade63fc06a36fee48a6bbdd31b9ee50d7924a946525192f90bc60004284604051610cbd93929190611aac565b60405180910390a15b5050565b610cd2611758565b60008083815260200190815260200160002061018060405190810160405290816000820154815260200160018201548152602001600282018054600181600116156101000203166002900480601f016020809104026020016040519081016040528092919081815260200182805460018160011615610100020316600290048015610d9e5780601f10610d7357610100808354040283529160200191610d9e565b820191906000526020600020905b815481529060010190602001808311610d8157829003601f168201915b5050505050815260200160038201548152602001600482018054600181600116156101000203166002900480601f016020809104026020016040519081016040528092919081815260200182805460018160011615610100020316600290048015610e4a5780601f10610e1f57610100808354040283529160200191610e4a565b820191906000526020600020905b815481529060010190602001808311610e2d57829003601f168201915b50505050508152602001600582015481526020016006820154815260200160078201548152602001600882018054600181600116156101000203166002900480601f016020809104026020016040519081016040528092919081815260200182805460018160011615610100020316600290048015610f0a5780601f10610edf57610100808354040283529160200191610f0a565b820191906000526020600020905b815481529060010190602001808311610eed57829003601f168201915b50505050508152602001600982018054600181600116156101000203166002900480601f016020809104026020016040519081016040528092919081815260200182805460018160011615610100020316600290048015610fac5780601f10610f8157610100808354040283529160200191610fac565b820191906000526020600020905b815481529060010190602001808311610f8f57829003601f168201915b50505050508152602001600a82018054600181600116156101000203166002900480601f01602080910402602001604051908101604052809291908181526020018280546001816001161561010002031660029004801561104e5780601f106110235761010080835404028352916020019161104e565b820191906000526020600020905b81548152906001019060200180831161103157829003601f168201915b50505050508152602001600b820154815250509050919050565b60008060008481526020019081526020016000206005015414156110e15780600080848152602001908152602001600020600501819055507fdfa6cd20eee5bade63fc06a36fee48a6bbdd31b9ee50d7924a946525192f90bc600142846040516110d493929190611aac565b60405180910390a161111e565b7fdfa6cd20eee5bade63fc06a36fee48a6bbdd31b9ee50d7924a946525192f90bc6000428460405161111593929190611aac565b60405180910390a15b5050565b60008060008481526020019081526020016000206005015414156111ab578060008084815260200190815260200160002060040190805190602001906111699291906116d8565b507fdfa6cd20eee5bade63fc06a36fee48a6bbdd31b9ee50d7924a946525192f90bc6001428460405161119e93929190611aac565b60405180910390a16111e8565b7fdfa6cd20eee5bade63fc06a36fee48a6bbdd31b9ee50d7924a946525192f90bc600042846040516111df93929190611aac565b60405180910390a15b5050565b6000806000848152602001908152602001600020600b01541415611275578060008084815260200190815260200160002060080190805190602001906112339291906116d8565b507fdfa6cd20eee5bade63fc06a36fee48a6bbdd31b9ee50d7924a946525192f90bc6001428460405161126893929190611aac565b60405180910390a16112b2565b7fdfa6cd20eee5bade63fc06a36fee48a6bbdd31b9ee50d7924a946525192f90bc600042846040516112a993929190611aac565b60405180910390a15b5050565b6000806000848152602001908152602001600020600b0154141561133f578060008084815260200190815260200160002060090190805190602001906112fd9291906116d8565b507fdfa6cd20eee5bade63fc06a36fee48a6bbdd31b9ee50d7924a946525192f90bc6001428460405161133293929190611aac565b60405180910390a161137c565b7fdfa6cd20eee5bade63fc06a36fee48a6bbdd31b9ee50d7924a946525192f90bc6000428460405161137393929190611aac565b60405180910390a15b5050565b6000602052806000526040600020600091509050806000015490806001015490806002018054600181600116156101000203166002900480601f0160208091040260200160405190810160405280929190818152602001828054600181600116156101000203166002900480156114385780601f1061140d57610100808354040283529160200191611438565b820191906000526020600020905b81548152906001019060200180831161141b57829003601f168201915b505050505090806003015490806004018054600181600116156101000203166002900480601f0160208091040260200160405190810160405280929190818152602001828054600181600116156101000203166002900480156114dc5780601f106114b1576101008083540402835291602001916114dc565b820191906000526020600020905b8154815290600101906020018083116114bf57829003601f168201915b505050505090806005015490806006015490806007015490806008018054600181600116156101000203166002900480601f01602080910402602001604051908101604052809291908181526020018280546001816001161561010002031660029004801561158c5780601f106115615761010080835404028352916020019161158c565b820191906000526020600020905b81548152906001019060200180831161156f57829003601f168201915b505050505090806009018054600181600116156101000203166002900480601f01602080910402602001604051908101604052809291908181526020018280546001816001161561010002031660029004801561162a5780601f106115ff5761010080835404028352916020019161162a565b820191906000526020600020905b81548152906001019060200180831161160d57829003601f168201915b50505050509080600a018054600181600116156101000203166002900480601f0160208091040260200160405190810160405280929190818152602001828054600181600116156101000203166002900480156116c85780601f1061169d576101008083540402835291602001916116c8565b820191906000526020600020905b8154815290600101906020018083116116ab57829003601f168201915b50505050509080600b015490508c565b828054600181600116156101000203166002900490600052602060002090601f016020900481019282601f1061171957805160ff1916838001178555611747565b82800160010185558215611747579182015b8281111561174657825182559160200191906001019061172b565b5b50905061175491906117ba565b5090565b610180604051908101604052806000815260200160008152602001606081526020016000815260200160608152602001600081526020016000815260200160008152602001606081526020016060815260200160608152602001600081525090565b6117dc91905b808211156117d85760008160009055506001016117c0565b5090565b90565b600082601f83011215156117f257600080fd5b813561180561180082611d01565b611cd4565b9150808252602083016020830185838301111561182157600080fd5b61182c838284611d63565b50505092915050565b60006118418235611d59565b905092915050565b60006020828403121561185b57600080fd5b600061186984828501611835565b91505092915050565b6000806040838503121561188557600080fd5b600061189385828601611835565b925050602083013567ffffffffffffffff8111156118b057600080fd5b6118bc858286016117df565b9150509250929050565b600080604083850312156118d957600080fd5b60006118e785828601611835565b92505060206118f885828601611835565b9150509250929050565b61190b81611d43565b82525050565b600061191c82611d38565b808452611930816020860160208601611d72565b61193981611da5565b602085010191505092915050565b600061195282611d2d565b808452611966816020860160208601611d72565b61196f81611da5565b602085010191505092915050565b6000610180830160008301516119966000860182611a9d565b5060208301516119a96020860182611a9d565b50604083015184820360408601526119c18282611947565b91505060608301516119d66060860182611a9d565b50608083015184820360808601526119ee8282611947565b91505060a0830151611a0360a0860182611a9d565b5060c0830151611a1660c0860182611a9d565b5060e0830151611a2960e0860182611a9d565b50610100830151848203610100860152611a438282611947565b915050610120830151848203610120860152611a5f8282611947565b915050610140830151848203610140860152611a7b8282611947565b915050610160830151611a92610160860182611a9d565b508091505092915050565b611aa681611d4f565b82525050565b6000606082019050611ac16000830186611902565b611ace6020830185611a9d565b611adb6040830184611a9d565b949350505050565b60006020820190508181036000830152611afd818461197d565b905092915050565b6000602082019050611b1a6000830184611a9d565b92915050565b600060a082019050611b356000830188611a9d565b8181036020830152611b478187611911565b9050611b566040830186611a9d565b8181036060830152611b688185611911565b9050611b776080830184611a9d565b9695505050505050565b600060c082019050611b966000830189611a9d565b611ba36020830188611a9d565b8181036040830152611bb58187611911565b9050611bc46060830186611a9d565b8181036080830152611bd68185611911565b905081810360a0830152611bea8184611911565b9050979650505050505050565b600061018082019050611c0d600083018f611a9d565b611c1a602083018e611a9d565b8181036040830152611c2c818d611947565b9050611c3b606083018c611a9d565b8181036080830152611c4d818b611947565b9050611c5c60a083018a611a9d565b611c6960c0830189611a9d565b611c7660e0830188611a9d565b818103610100830152611c898187611947565b9050818103610120830152611c9e8186611947565b9050818103610140830152611cb38185611947565b9050611cc3610160830184611a9d565b9d9c50505050505050505050505050565b6000604051905081810181811067ffffffffffffffff82111715611cf757600080fd5b8060405250919050565b600067ffffffffffffffff821115611d1857600080fd5b601f19601f8301169050602081019050919050565b600081519050919050565b600081519050919050565b60008115159050919050565b6000819050919050565b6000819050919050565b82818337600083830152505050565b60005b83811015611d90578082015181840152602081019050611d75565b83811115611d9f576000848401525b50505050565b6000601f19601f83011690509190505600a265627a7a72305820dea23da0702a0c46be680ede69f4ceb6b106c6552e94f7e6137d4ecf7d64640e6c6578706572696d656e74616cf50037",
  "source": "pragma solidity ^0.4.18;\npragma experimental ABIEncoderV2;\ncontract Car{ \n    struct CarDetails{\n        uint timestamp;\n        uint carId;\n        \n        string carName;\n        uint carType;\n        string company;\n        uint fee;\n        \n        uint pnum;\n        uint vmile;\n        string fuel;\n        string changeType;\n        string purchaseTime;\n        uint efficiency;\n        \n    }\n   \n    mapping (uint => CarDetails) public cars;\n    \n    // event1: check enroll status\n    event logCarAddedStatus(bool status, uint timestamp, uint carId);\n    //event2: get All of CarDetails\n    event logGetAllOfCars(uint amount);\n    \n    //owner set with timestamp of block \n    function enroll_carName(uint _carId, string _carName) public {\n        if(cars[_carId].timestamp == 0){\n            cars[_carId].carId = _carId;\n            cars[_carId].carName = _carName;\n            cars[_carId].timestamp = block.timestamp;\n            logCarAddedStatus(true, block.timestamp, _carId);            \n        }else{ \n            logCarAddedStatus(false, block.timestamp, _carId); \n        } \n    }\n    function enroll_carType(uint _carId, uint _carType) public {\n        if(cars[_carId].carType == 0){\n            cars[_carId].carType = _carType;\n            logCarAddedStatus(true, block.timestamp, _carId);            \n        }else{ \n            logCarAddedStatus(false, block.timestamp, _carId); \n        } \n    }\n    function enroll_company(uint _carId, string _company) public {\n        if(cars[_carId].fee == 0){\n            cars[_carId].company = _company;\n            logCarAddedStatus(true, block.timestamp, _carId);            \n        }else{ \n            logCarAddedStatus(false, block.timestamp, _carId); \n        } \n    }\n    function enroll_fee(uint _carId, uint _fee) public {\n        if(cars[_carId].fee == 0){\n            cars[_carId].fee = _fee;\n            logCarAddedStatus(true, block.timestamp, _carId);            \n        }else{ \n            logCarAddedStatus(false, block.timestamp, _carId); \n        } \n    } \n    function enroll_pnum(uint _carId, uint _pnum) public {\n        if(cars[_carId].pnum == 0){\n            cars[_carId].pnum = _pnum;\n            logCarAddedStatus(true, block.timestamp, _carId);            \n        }else{ \n            logCarAddedStatus(false, block.timestamp, _carId); \n        } \n    }\n    function enroll_vmile(uint _carId, uint _vmile) public {\n        if(cars[_carId].vmile == 0){\n            cars[_carId].vmile = _vmile;\n            logCarAddedStatus(true, block.timestamp, _carId);            \n        }else{ \n            logCarAddedStatus(false, block.timestamp, _carId); \n        } \n    }\n    function enroll_fuel(uint _carId, string _fuel) public {\n        if(cars[_carId].efficiency == 0){\n            cars[_carId].fuel = _fuel;\n            logCarAddedStatus(true, block.timestamp, _carId);            \n        }else{ \n            logCarAddedStatus(false, block.timestamp, _carId); \n        } \n    }\n    function enroll_changeType(uint _carId, string _changeType) public {\n        if(cars[_carId].efficiency == 0){\n            cars[_carId].changeType = _changeType;\n            logCarAddedStatus(true, block.timestamp, _carId);            \n        }else{ \n            logCarAddedStatus(false, block.timestamp, _carId); \n        } \n    }\n    function enroll_purchaseTime(uint _carId, string _purchaseTime) public {\n        if(cars[_carId].efficiency == 0){\n            cars[_carId].purchaseTime = _purchaseTime;\n            logCarAddedStatus(true, block.timestamp, _carId);            \n        }else{ \n            logCarAddedStatus(false, block.timestamp, _carId); \n        } \n    }\n    function enroll_efficiency(uint _carId, uint _efficiency) public {\n        if(cars[_carId].efficiency == 0){\n            cars[_carId].efficiency = _efficiency;\n            logCarAddedStatus(true, block.timestamp, _carId);            \n        }else{ \n            logCarAddedStatus(false, block.timestamp, _carId); \n        } \n    }\n    \n    \n    \n    // get All of CarDetails\n    function getAll(uint amount) {\n        logGetAllOfCars(amount);\n    }\n    \n    \n    // get CarDetails.accident by carId\n    function get(uint _Id) public returns (CarDetails) {\n        return (cars[_Id]);\n    }\n    \n    // get CarDetails.accident by carId\n    function getInfoA(uint _carId) public view returns (uint, string, uint, string, uint) {\n        return (cars[_carId].carId, cars[_carId].carName, cars[_carId].carType, cars[_carId].company, cars[_carId].fee);\n    }\n    function getInfoB(uint _carId) public view returns (uint, uint, string, uint, string, string) {\n        return (cars[_carId].pnum, cars[_carId].vmile, cars[_carId].fuel, cars[_carId].efficiency, cars[_carId].changeType, cars[_carId].purchaseTime);\n    }\n\n}",
  "sourcePath": "C:\\Users\\Jiwon Kim\\Desktop\\jw_car_project_last\\contracts\\Car.sol",
  "compiler": {
    "name": "solc",
    "version": "0.4.24+commit.e67f0147.Emscripten.clang"
  },
  "schemaVersion": "2.0.1",
  "updatedAt": "2020-09-16T15:05:18.330Z"
}