{
  "contractName": "Process",
  "abi": [
    {
      "anonymous": false,
      "inputs": [
        {
          "indexed": false,
          "name": "status",
          "type": "bool"
        },
        {
          "indexed": false,
          "name": "timestamp",
          "type": "uint256"
        },
        {
          "indexed": false,
          "name": "carId",
          "type": "uint256"
        }
      ],
      "name": "logRentProcessStatus",
      "type": "event"
    },
    {
      "anonymous": false,
      "inputs": [
        {
          "indexed": false,
          "name": "status",
          "type": "bool"
        },
        {
          "indexed": false,
          "name": "proId",
          "type": "uint256"
        },
        {
          "indexed": false,
          "name": "userId",
          "type": "uint256"
        }
      ],
      "name": "logUseProcessStatus",
      "type": "event"
    },
    {
      "anonymous": false,
      "inputs": [
        {
          "indexed": false,
          "name": "status",
          "type": "bool"
        },
        {
          "indexed": false,
          "name": "proId",
          "type": "uint256"
        },
        {
          "indexed": false,
          "name": "userId",
          "type": "uint256"
        }
      ],
      "name": "logTurnInProcessStatus",
      "type": "event"
    },
    {
      "constant": false,
      "inputs": [
        {
          "name": "_carId",
          "type": "uint256"
        },
        {
          "name": "_userId",
          "type": "uint256"
        },
        {
          "name": "_rentTime",
          "type": "uint8"
        },
        {
          "name": "_retLocation",
          "type": "uint256"
        }
      ],
      "name": "rent",
      "outputs": [
        {
          "name": "",
          "type": "uint256"
        }
      ],
      "payable": false,
      "stateMutability": "nonpayable",
      "type": "function"
    },
    {
      "constant": false,
      "inputs": [
        {
          "name": "_proId",
          "type": "uint256"
        },
        {
          "name": "_userId",
          "type": "uint256"
        },
        {
          "name": "_pictureHash",
          "type": "uint256"
        }
      ],
      "name": "useCar",
      "outputs": [],
      "payable": false,
      "stateMutability": "nonpayable",
      "type": "function"
    },
    {
      "constant": false,
      "inputs": [
        {
          "name": "_userId",
          "type": "uint256"
        },
        {
          "name": "_proId",
          "type": "uint256"
        },
        {
          "name": "_retLocation",
          "type": "uint256"
        },
        {
          "name": "_pictureHash",
          "type": "uint256"
        }
      ],
      "name": "turnIn",
      "outputs": [],
      "payable": false,
      "stateMutability": "nonpayable",
      "type": "function"
    },
    {
      "constant": false,
      "inputs": [
        {
          "name": "_proId",
          "type": "uint256"
        }
      ],
      "name": "get",
      "outputs": [
        {
          "name": "",
          "type": "uint256"
        },
        {
          "name": "",
          "type": "uint256"
        },
        {
          "name": "",
          "type": "uint256"
        },
        {
          "name": "",
          "type": "uint256"
        },
        {
          "name": "",
          "type": "uint8"
        },
        {
          "name": "",
          "type": "uint256"
        },
        {
          "name": "",
          "type": "uint256[]"
        }
      ],
      "payable": false,
      "stateMutability": "nonpayable",
      "type": "function"
    }
  ],
  "bytecode": "0x608060405234801561001057600080fd5b50610928806100206000396000f300608060405260043610610062576000357c0100000000000000000000000000000000000000000000000000000000900463ffffffff1680638057503a146100675780639507d39a1461009057806399401e57146100d3578063a267c96114610110575b600080fd5b34801561007357600080fd5b5061008e6004803603610089919081019061062a565b610139565b005b34801561009c57600080fd5b506100b760048036036100b29190810190610601565b610218565b6040516100ca9796959493929190610819565b60405180910390f35b3480156100df57600080fd5b506100fa60048036036100f591908101906106dc565b610334565b60405161010791906107fe565b60405180910390f35b34801561011c57600080fd5b5061013760048036036101329190810190610679565b61049a565b005b816000808581526020019081526020016000206003015414156101d6576000808481526020019081526020016000206007018190806001815401808255809150509060018203906000526020600020016000909192909190915055507f02669b7f8758bbf8343ec4dfa3ad9f77588fac15db26d2c1db5dd64630d7f2f4600184846040516101c9939291906107c7565b60405180910390a1610213565b7f02669b7f8758bbf8343ec4dfa3ad9f77588fac15db26d2c1db5dd64630d7f2f46000848460405161020a939291906107c7565b60405180910390a15b505050565b6000806000806000806060600080898152602001908152602001600020600101546000808a8152602001908152602001600020600201546000808b8152602001908152602001600020600301546000808c8152602001908152602001600020600001546000808d815260200190815260200160002060050160009054906101000a900460ff166000808e8152602001908152602001600020600601546000808f81526020019081526020016000206007018080548060200260200160405190810160405280929190818152602001828054801561031457602002820191906000526020600020905b815481526020019060010190808311610300575b505050505090509650965096509650965096509650919395979092949650565b6000808486420101905060008060008381526020019081526020016000206000015414156104505780600080838152602001908152602001600020600101819055508560008083815260200190815260200160002060020181905550846000808381526020019081526020016000206003018190555042600080838152602001908152602001600020600001819055508360008083815260200190815260200160002060050160006101000a81548160ff021916908360ff16021790555082600080838152602001908152602001600020600601819055507f1a846c6a544a1b0f7bb6cf9c939715420d6930cd8e850f0de1e96473446cf2c860014283604051610440939291906107c7565b60405180910390a1809150610491565b7f1a846c6a544a1b0f7bb6cf9c939715420d6930cd8e850f0de1e96473446cf2c860004283604051610484939291906107c7565b60405180910390a1600191505b50949350505050565b836000808581526020019081526020016000206003015414156105965781600080858152602001908152602001600020600601541415610554576000808481526020019081526020016000206007018190806001815401808255809150509060018203906000526020600020016000909192909190915055507f7e588a89bba249159e7e9f105d66b5d865d75dac9069fe0e3b0bb2d80d8840e760018486604051610547939291906107c7565b60405180910390a1610591565b7f7e588a89bba249159e7e9f105d66b5d865d75dac9069fe0e3b0bb2d80d8840e760008486604051610588939291906107c7565b60405180910390a15b6105d3565b7f7e588a89bba249159e7e9f105d66b5d865d75dac9069fe0e3b0bb2d80d8840e7600084866040516105ca939291906107c7565b60405180910390a15b50505050565b60006105e582356108d7565b905092915050565b60006105f982356108e1565b905092915050565b60006020828403121561061357600080fd5b6000610621848285016105d9565b91505092915050565b60008060006060848603121561063f57600080fd5b600061064d868287016105d9565b935050602061065e868287016105d9565b925050604061066f868287016105d9565b9150509250925092565b6000806000806080858703121561068f57600080fd5b600061069d878288016105d9565b94505060206106ae878288016105d9565b93505060406106bf878288016105d9565b92505060606106d0878288016105d9565b91505092959194509250565b600080600080608085870312156106f257600080fd5b6000610700878288016105d9565b9450506020610711878288016105d9565b9350506040610722878288016105ed565b9250506060610733878288016105d9565b91505092959194509250565b600061074a8261089c565b80845260208401935061075c8361088f565b60005b8281101561078e576107728683516107a9565b61077b826108a7565b915060208601955060018101905061075f565b50849250505092915050565b6107a3816108b4565b82525050565b6107b2816108c0565b82525050565b6107c1816108ca565b82525050565b60006060820190506107dc600083018661079a565b6107e960208301856107a9565b6107f660408301846107a9565b949350505050565b600060208201905061081360008301846107a9565b92915050565b600060e08201905061082e600083018a6107a9565b61083b60208301896107a9565b61084860408301886107a9565b61085560608301876107a9565b61086260808301866107b8565b61086f60a08301856107a9565b81810360c0830152610881818461073f565b905098975050505050505050565b6000602082019050919050565b600081519050919050565b6000602082019050919050565b60008115159050919050565b6000819050919050565b600060ff82169050919050565b6000819050919050565b600060ff821690509190505600a265627a7a72305820f6155bf3a62552a3c3bbe1aaee39f59eccee062dbc11e4e19a5348a0d07d95936c6578706572696d656e74616cf50037",
  "source": "pragma solidity ^0.4.18;\npragma experimental ABIEncoderV2;\ncontract Process{ \n    struct Renting{ \n        uint timestamp;\n        uint proId;\n        uint carId;\n        uint userId;\n        \n        uint amount;\n        uint8 rentTime;\n        uint retLocation;\n        uint[] pictureHash;\n    }\n   \n    mapping (uint => Renting) renting;\n    \n    // event1: check Rent Process status\n    event logRentProcessStatus(bool status, uint timestamp, uint carId);\n    //event2: get All of CarDetails\n    event logUseProcessStatus(bool status, uint proId, uint userId);\n    //event3: get All of CarDetails\n    event logTurnInProcessStatus(bool status, uint proId, uint userId);\n    \n    // Process of rent car\n    function rent(uint _carId, uint _userId, uint8 _rentTime, uint _retLocation) returns (uint) {\n        uint _proId = block.timestamp + _carId + _userId;\n        if(renting[_proId].timestamp == 0){\n            renting[_proId].proId = _proId;\n            renting[_proId].carId = _carId;\n            renting[_proId].userId = _userId;\n            renting[_proId].timestamp = block.timestamp;\n            renting[_proId].rentTime = _rentTime;\n            renting[_proId].retLocation = _retLocation;\n            logRentProcessStatus(true, block.timestamp, _proId); \n            return _proId;\n        }\n        else logRentProcessStatus(false, block.timestamp, _proId);\n        return 1;\n    }\n    \n    // Process of use car\n    function useCar(uint _proId, uint _userId, uint _pictureHash) public {\n        if (renting[_proId].userId == _userId){\n            renting[_proId].pictureHash.push(_pictureHash);\n            logUseProcessStatus(true, _proId, _userId);\n        } \n        else logUseProcessStatus(false, _proId, _userId);\n    }\n    \n    // Process of return car\n    function turnIn(uint _userId, uint _proId, uint _retLocation, uint _pictureHash) public {\n        if (renting[_proId].userId == _userId){\n            if(renting[_proId].retLocation == _retLocation){\n                renting[_proId].pictureHash.push(_pictureHash);\n                logTurnInProcessStatus(true, _proId, _userId);\n            } \n            else logTurnInProcessStatus(false, _proId, _userId);\n        } \n        else logTurnInProcessStatus(false, _proId, _userId);\n    }\n\n    // get CarDetails.accident by carId\n    function get(uint _proId) returns (uint, uint, uint, uint, uint8, uint, uint[]){\n        return (renting[_proId].proId, renting[_proId].carId, renting[_proId].userId,\n            renting[_proId].timestamp, renting[_proId].rentTime, renting[_proId].retLocation, renting[_proId].pictureHash); \n    }\n\n    \n}",
  "sourcePath": "C:\\Users\\Jiwon Kim\\Desktop\\jw_car_project_last\\contracts\\Process.sol",
  "compiler": {
    "name": "solc",
    "version": "0.4.24+commit.e67f0147.Emscripten.clang"
  },
  "schemaVersion": "2.0.1",
  "updatedAt": "2020-09-16T15:05:18.924Z"
}